:0E0989000C08303132333435363738394142BC
:10080000758920758DFD759850D28E75A0FFE4F521
:100810009085A01453140FE514B40FF27F147E00DA
:1008200012096985A01453140FE514640F60ED7F5D
:10083000147E0012096985A01453140FE514640F87
:1008400060DA7590FE85A01453140FE514640F60F0
:1008500005E4F515803A7590FD85A01453140FE555
:1008600014640F600575150180267590FB85A01432
:1008700053140FE514640F6005751502801275900E
:10088000F785A01453140FE514640F60B5751503B4
:10089000E514B40E0BE51575F003A42408120998AD
:1008A000E514B40D0BE51575F003A424091209989D
:1008B000E514B40B0EE51575F003A4240AF8E6FF61
:1008C00012099BE5146407600302080EE51575F034
:0D08D00003A4240BF8E6FF12099B02080E9A
:03099800F8E6FF7F
:08099B008F993099FDC29922E9
:10096900E4FDFCC3ED9FEC9E5015E4FBFA0BBB00C4
:0F097900010AEB64644A70F50DBD00010C80E4C7
:01098800224C
:030000000208DD16
:0C08DD00787FE4F6D8FD7581150209242F
:1008E900020800E493A3F8E493A34003F68001F21D
:1008F90008DFF48029E493A3F85407240CC8C33310
:10090900C4540F4420C8834004F456800146F6DFDE
:10091900E4800B0102040810204080900989E47EDC
:10092900019360BCA3FF543F30E509541FFEE493D3
:10093900A360010ECF54C025E060A840B8E493A39A
:10094900FAE493A3F8E493A3C8C582C8CAC583CAC5
:10095900F0A3C8C582C8CAC583CADFE9DEE780BE7D
:01099700005F
:00000001FF
