:0300000002136484
:0C136400787FE4F6D8FD75817702080060
:10119A0057656C636F6D6520746F00536D6172746F
:1011AA00204375727461696E00506C7320656E74A9
:1011BA006572206D6F6465004D6F646520312C2067
:1011CA00322C2033004D6F64653120284175746FCD
:1011DA0029003C316B4C753D4F203E316B4C753DBF
:1011EA0043004D6F64653220284F6E2054696D6547
:1011FA002900456E7465722054696D6500310032AC
:10120A00003300340035003600370038003900302A
:10121A00002564003A004D6F6465332028456E74DA
:10122A0065724B657929002A3D4F20303D532023B2
:05123A003D430000002F
:10080000754C00754DC0E4FDFC7F38121375E4FD96
:10081000FC7F0C121375121370E4FDFC7F0612139B
:10082000757BFF7A11799A1212577BFF7A1179A59D
:100830001212C97FDC7E0512132B1213707BFF7A14
:100840001179B31212577BFF7A1179C21212C9C201
:1008500080D283D282D2812084571213707F207E6F
:100860000012132B7BFF7A1179CF1212577BFF7A7C
:100870001179DC1212C920B20620B40312138130A0
:10088000B20630B40312138630B20620B40312133A
:100890008B20B20630B40312138BC280D283D28273
:1008A000D2813084063085032086CB12138B12133D
:0708B00070308503020C52B9
:1008B700E4F54EF54F78507C00FD7BFF7A12793DC9
:1008C700FE7F141210D41213707F207E0012132B98
:1008D7001212517FDC7E0512132B1213707BFF7AE5
:1008E7001179FC121257C280D283D282D28120841E
:1008F700247A12790712128E121327054DE54D70CF
:1009070002054C054FE54F7002054E25E02450F8CF
:1009170076000876012085247A12790912128E1240
:100927001327054DE54D7002054C054FE54F700245
:10093700054E25E02450F876000876022086287BAD
:10094700FF7A12790BAD4D121292121327054DE55E
:100957004D7002054C054FE54F7002054E25E0240A
:1009670050F87600087603D283D282D280C28120E3
:1009770084287BFF7A12790DAD4D1212921213273C
:10098700054DE54D7002054C054FE54F7002054ECC
:1009970025E02450F876000876042085287BFF7A26
:1009A70012790FAD4D121292121327054DE54D70B6
:1009B70002054C054FE54F7002054E25E02450F81F
:1009C70076000876052086287BFF7A127911AD4DCF
:1009D700121292121327054DE54D7002054C054F73
:1009E700E54F7002054E25E02450F876000876069C
:1009F700D283D281D280C2822084287BFF7A127967
:100A070013AD4D121292121327054DE54D700205D5
:100A17004C054FE54F7002054E25E02450F876004F
:100A27000876072085287BFF7A127915AD4D1212BB
:100A370092121327054DE54D7002054C054FE54F02
:100A47007002054E25E02450F876000876082086C7
:100A5700287BFF7A127917AD4D12129212132705D0
:100A67004DE54D7002054C054FE54F7002054E25CB
:100A7700E02450F87600087609D282D281D280C26B
:100A8700832085277BFF7A127919AD4D12129212B6
:100A97001327054DE54D7002054C054FE54F7002D4
:100AA700054E25E02450F8E4F608F6E54F640645C0
:100AB7004E60030208EDAE52AF537C007D0A12115F
:100AC70027E5552FF523E5543EF522AE56AF5712CD
:100AD7001127E5592FF525E5583EF524AE5AAF5BAA
:100AE700121127E55D2FF527E55C3EF526852228BF
:100AF700852329D3E5299417E5286480948040034A
:100B0700020C3885242A85252BD3E52B943BE52A2F
:100B1700648094804003020C1085262C85272DD3F2
:100B2700E52D943BE52C648094804003020BE87527
:100B370067FF75681275691B85286A85296B7B00B5
:100B47007A00792E120D047567FF75681275691B97
:100B5700852A6A852B6B7B007A007938120D04751C
:100B670067FF75681275691B852C6A852D6B7B007D
:100B77007A007942120D047B007A00792E1212C98D
:100B87007BFF7A12791E7DC21212927B007A00795E
:100B9700387DC31212927BFF7A12791E7DC512121D
:100BA700927B007A0079427DC61212927FE87E031B
:100BB70012132B121370121251E52D643B452C7042
:100BC70004F526F527C280D283D282D281308411E0
:100BD70030850E30860B052DE52D7002052C020B96
:100BE70026E52B643B452A7004F524F525C280D2FF
:100BF70083D282D28130841130850E30860B052B4B
:100C0700E52B7002052A020B10E5296417452870A9
:100C170004F522F523C280D283D282D28130841197
:100C270030850E30860B0529E52970020528020A52
:100C3700FAC280D283D282D28130840F30850C30C1
:0B0C4700860912138B1213700208D7ED
:100C520030860302084F1213707F207E0012132B7E
:100C62007BFF7A1279201212577BFF7A12793112A6
:100C720012C9C283D282D281D2802084031213810C
:100C820020860312138620850312138BC280D2831F
:100C9200D282D2813084063085032086D512138B0E
:060CA20012137002084F5E
:061251007BFF7A1179EC2D
:061257008B648A658966C4
:10125D00E4FDFC7F80121375E4F567F568AB64AAB5
:10126D0065A9668568828567831210FAFF60117D16
:10127D00017C001213750568E56870E1056780DD76
:01128D00223E
:0612C9008B648A65896652
:1012CF00E4FDFC7FC0121375E4F567F568AB64AA03
:1012DF0065A9668568828567831210FAFF60117DA4
:1012EF00017C001213750568E56870E1056780DD04
:0112FF0022CC
:04128E007BFFAD4DE8
:081292008B648A658966AF05D3
:10129A00E4FDFC121375E4F567F568AB64AA65A969
:1012AA00668568828567831210FAFF60117D017C6A
:0E12BA00001213750568E56870E1056780DDB8
:0112C8002203
:0A134B008F90EC4D24FF92B5D2B351
:0E135500E4FFFE0FBF00010EBE04F8BFFBF563
:011363002267
:041327007FF47E01D0
:10132B00E4FDFCC3ED9FEC9E5015E4FBFA0BBB00F8
:0F133B00010AEB64784A70F50DBD00010C80E4E7
:01134A002280
:05137000E4FDFC7F011B
:0613750012134BC2B3226B
:06137B0012134BC2B32265
:05138100D2B0C2B12250
:05138600C2B0D2B1224B
:05138B00D2B0D2B12236
:10100400E709F608DFFA8046E709F208DFFA803ECE
:1010140088828C83E709F0A3DFFA8032E309F608BB
:10102400DFFA8078E309F208DFFA807088828C8323
:10103400E309F0A3DFFA806489828A83E0A3F608D7
:10104400DFFA805889828A83E0A3F208DFFA804CB1
:1010540080D280FA80C680D4806980F28033801088
:1010640080A680EA809A80A880DA80E280CA8033F1
:1010740089828A83ECFAE493A3C8C582C8CCC58369
:10108400CCF0A3C8C582C8CCC583CCDFE9DEE78039
:101094000D89828A83E493A3F608DFF9ECFAA9F0B8
:1010A400EDFB2289828A83ECFAE0A3C8C582C8CC0E
:1010B400C583CCF0A3C8C582C8CCC583CCDFEADE27
:1010C400E880DB89828A83E493A3F208DFF980CC89
:1010D40088F0EF60010E4E60C388F0ED2402B40482
:1010E4000050B9F582EB2402B4040050AF23234529
:0610F400822390105473EA
:1010FA00BB010CE58229F582E5833AF583E02250AB
:10110A0006E92582F8E622BBFE06E92582F8E222F4
:0D111A00E58229F582E5833AF583E493220E
:10112700EF8DF0A4A8F0CF8CF0A428CE8DF0A42EDC
:02113700FE2296
:100CA800E5732467F8E605732278643007027867ED
:100CB800E475F0011211640211392000EB7F2ED285
:100CC800008018EF540F2490D43440D4FF30040B24
:100CD800EF24BFB41A0050032461FFE574600215C5
:100CE800740577E5777002057630070D7864E4754A
:100CF800F001121164EF0211520213007403D207BB
:100D08008003E4C207F5738B648A658966E4F57429
:100D1800F576F577E57460077F20120CE380F575AA
:100D280075FFC201C200C202C203C205C206C208E0
:100D3800120CB1FF700D3007057F00120CF4AF776D
:100D4800AE7622B4255FC2D5C204120CB1FF24D0FE
:100D5800B40A00501A75F00A787430D50508B6FF41
:100D68000106C6A426F620D5047002D20380D92431
:100D7800CFB41A00EF5004C2E5D204020EF4D20137
:100D880080C6D20080C0D20280BCD2D580BAD2053B
:100D980080B47F20120CE32002077401B574004070
:100DA800F1120CA8FF120CE3020D1CD208D2068027
:100DB80095120CA8FB120CA8FA120CA8F94A4B7051
:100DC8000679C57A0F7BFF20022EE574602A7E0023
:100DD8008E827583001210FA60060EEE657570F04B
:100DE800C2D5EBC0E0EAC0E0E9C0E0EE120F3BD0AC
:100DF800E0F9D0E0FAD0E0FB121139FF60AAEBC0AD
:100E0800E0EAC0E0E9C0E0120CE3D0E02401F9D048
:100E1800E03400FAD0E0FBE5750460DCD575D980D4
:100E2800877BFF7A0F7937D202809C79108002790C
:100E380008C206C2088008D2D5790A8004790AC295
:100E4800D5E575047002F575E4FAFDFEFF120CA8ED
:100E5800FC7B08200113120CA8FD7B1030000A123D
:100E68000CA8FE120CA8FF7B20EC3382D592D5503B
:100E780013C3E43000069FFFE49EFEE42001039DB7
:100E8800FDE49CFCE4CBF8C201EC700CCFCECDCCD9
:100E9800E824F8F870F38017C3EF33FFEE33FEED64
:100EA80033FDEC33FCEB33FB994002FB0FD8E9EB45
:100EB800300105F8D0E0C448B201C0E00AEC4D4E5C
:100EC8004F78207B0070C2EAB5750040BCC0E012C4
:100ED8000F3DD0F0D0E0200104C4C0E0C4B201C08E
:100EE800F0120CCCD0F0D5F0EB020D1C1211740DE1
:100EF800B9530E33580D8A4C0D86420E374F0E3FAC
:0F0F0800440E3F490D9F430E45550E29460E29B5
:100F1700450E29470FE5500D8E2D0D922E0DB52B41
:100F27000D96230DB3200FCE2A0D4E4800000DADB0
:100F37003F3F3F00790AA2D5200314300509B910B5
:100F4700020404B9080104A2D520060250010420B6
:100F570002689202B574005034C0E07F2030031954
:100F67007F30A20272067205500F120F94C202C29E
:100F770006C205C2087F30800F300503E9C0E012C2
:100F87000CE3300503D0E0F9D0E0B574CC30051799
:100F97007F30B9100C120CE37F583004077F78803C
:100FA70003B90803120CE33002057F2D020CE37F1F
:100FB700202008F87F2B2006F322920280CF286E8C
:100FC700756C6C2900D201120CA83001F8C20178A7
:100FD7007430D50108F6020D4E2D50434958120CB6
:100FE700A82403B405004001E4900FE093120CD449
:0D0FF700743A120CD4D203757404020E3348
:10113900BB010689828A83E0225002E722BBFE02B4
:09114900E32289828A83E49322E7
:10115200BB010689828A83F0225002F722BBFE017C
:02116200F32276
:10116400FAE6FB0808E6F925F0F618E6CA3AF6228C
:10117400D083D082F8E4937012740193700DA3A30A
:1011840093F8740193F5828883E47374029368601E
:06119400EFA3A3A380DF1E
:10130000EFB40A07740D12130B740A309811A899E0
:10131000B8130CC2983098FDA899C298B811F6304D
:0713200099FDC299F5992225
:00000001FF
